{
  "_format": "hh-sol-artifact-1",
  "contractName": "MansplainNft",
  "sourceName": "contracts/MansplainNft.sol",
  "abi": [
    {
      "inputs": [],
      "stateMutability": "nonpayable",
      "type": "constructor"
    },
    {
      "anonymous": false,
      "inputs": [
        {
          "indexed": true,
          "internalType": "address",
          "name": "owner",
          "type": "address"
        },
        {
          "indexed": true,
          "internalType": "address",
          "name": "approved",
          "type": "address"
        },
        {
          "indexed": true,
          "internalType": "uint256",
          "name": "tokenId",
          "type": "uint256"
        }
      ],
      "name": "Approval",
      "type": "event"
    },
    {
      "anonymous": false,
      "inputs": [
        {
          "indexed": true,
          "internalType": "address",
          "name": "owner",
          "type": "address"
        },
        {
          "indexed": true,
          "internalType": "address",
          "name": "operator",
          "type": "address"
        },
        {
          "indexed": false,
          "internalType": "bool",
          "name": "approved",
          "type": "bool"
        }
      ],
      "name": "ApprovalForAll",
      "type": "event"
    },
    {
      "anonymous": false,
      "inputs": [
        {
          "indexed": true,
          "internalType": "address",
          "name": "from",
          "type": "address"
        },
        {
          "indexed": true,
          "internalType": "address",
          "name": "to",
          "type": "address"
        },
        {
          "indexed": true,
          "internalType": "uint256",
          "name": "tokenId",
          "type": "uint256"
        }
      ],
      "name": "Transfer",
      "type": "event"
    },
    {
      "anonymous": false,
      "inputs": [
        {
          "indexed": false,
          "internalType": "address",
          "name": "sender",
          "type": "address"
        },
        {
          "indexed": false,
          "internalType": "uint256",
          "name": "tokenId",
          "type": "uint256"
        }
      ],
      "name": "nftMinted",
      "type": "event"
    },
    {
      "inputs": [
        {
          "internalType": "address",
          "name": "to",
          "type": "address"
        },
        {
          "internalType": "uint256",
          "name": "tokenId",
          "type": "uint256"
        }
      ],
      "name": "approve",
      "outputs": [],
      "stateMutability": "nonpayable",
      "type": "function"
    },
    {
      "inputs": [
        {
          "internalType": "address",
          "name": "owner",
          "type": "address"
        }
      ],
      "name": "balanceOf",
      "outputs": [
        {
          "internalType": "uint256",
          "name": "",
          "type": "uint256"
        }
      ],
      "stateMutability": "view",
      "type": "function"
    },
    {
      "inputs": [
        {
          "internalType": "uint256",
          "name": "tokenId",
          "type": "uint256"
        }
      ],
      "name": "getApproved",
      "outputs": [
        {
          "internalType": "address",
          "name": "",
          "type": "address"
        }
      ],
      "stateMutability": "view",
      "type": "function"
    },
    {
      "inputs": [],
      "name": "getTotalNftsMintedSoFar",
      "outputs": [
        {
          "internalType": "uint256",
          "name": "",
          "type": "uint256"
        }
      ],
      "stateMutability": "view",
      "type": "function"
    },
    {
      "inputs": [
        {
          "internalType": "address",
          "name": "owner",
          "type": "address"
        },
        {
          "internalType": "address",
          "name": "operator",
          "type": "address"
        }
      ],
      "name": "isApprovedForAll",
      "outputs": [
        {
          "internalType": "bool",
          "name": "",
          "type": "bool"
        }
      ],
      "stateMutability": "view",
      "type": "function"
    },
    {
      "inputs": [],
      "name": "makeNFT",
      "outputs": [],
      "stateMutability": "nonpayable",
      "type": "function"
    },
    {
      "inputs": [],
      "name": "name",
      "outputs": [
        {
          "internalType": "string",
          "name": "",
          "type": "string"
        }
      ],
      "stateMutability": "view",
      "type": "function"
    },
    {
      "inputs": [
        {
          "internalType": "uint256",
          "name": "tokenId",
          "type": "uint256"
        }
      ],
      "name": "ownerOf",
      "outputs": [
        {
          "internalType": "address",
          "name": "",
          "type": "address"
        }
      ],
      "stateMutability": "view",
      "type": "function"
    },
    {
      "inputs": [
        {
          "internalType": "address",
          "name": "from",
          "type": "address"
        },
        {
          "internalType": "address",
          "name": "to",
          "type": "address"
        },
        {
          "internalType": "uint256",
          "name": "tokenId",
          "type": "uint256"
        }
      ],
      "name": "safeTransferFrom",
      "outputs": [],
      "stateMutability": "nonpayable",
      "type": "function"
    },
    {
      "inputs": [
        {
          "internalType": "address",
          "name": "from",
          "type": "address"
        },
        {
          "internalType": "address",
          "name": "to",
          "type": "address"
        },
        {
          "internalType": "uint256",
          "name": "tokenId",
          "type": "uint256"
        },
        {
          "internalType": "bytes",
          "name": "_data",
          "type": "bytes"
        }
      ],
      "name": "safeTransferFrom",
      "outputs": [],
      "stateMutability": "nonpayable",
      "type": "function"
    },
    {
      "inputs": [
        {
          "internalType": "address",
          "name": "operator",
          "type": "address"
        },
        {
          "internalType": "bool",
          "name": "approved",
          "type": "bool"
        }
      ],
      "name": "setApprovalForAll",
      "outputs": [],
      "stateMutability": "nonpayable",
      "type": "function"
    },
    {
      "inputs": [
        {
          "internalType": "bytes4",
          "name": "interfaceId",
          "type": "bytes4"
        }
      ],
      "name": "supportsInterface",
      "outputs": [
        {
          "internalType": "bool",
          "name": "",
          "type": "bool"
        }
      ],
      "stateMutability": "view",
      "type": "function"
    },
    {
      "inputs": [],
      "name": "symbol",
      "outputs": [
        {
          "internalType": "string",
          "name": "",
          "type": "string"
        }
      ],
      "stateMutability": "view",
      "type": "function"
    },
    {
      "inputs": [
        {
          "internalType": "uint256",
          "name": "tokenId",
          "type": "uint256"
        }
      ],
      "name": "tokenURI",
      "outputs": [
        {
          "internalType": "string",
          "name": "",
          "type": "string"
        }
      ],
      "stateMutability": "view",
      "type": "function"
    },
    {
      "inputs": [
        {
          "internalType": "address",
          "name": "from",
          "type": "address"
        },
        {
          "internalType": "address",
          "name": "to",
          "type": "address"
        },
        {
          "internalType": "uint256",
          "name": "tokenId",
          "type": "uint256"
        }
      ],
      "name": "transferFrom",
      "outputs": [],
      "stateMutability": "nonpayable",
      "type": "function"
    }
  ],
  "bytecode": "0x608060405260405180610280016040528060405180610360016040528061032a81526020016200898361032a91398152602001604051806103600160405280610321815260200162006a4f6103219139815260200160405180610380016040528061034981526020016200863a610349913981526020016040518061040001604052806103d1815260200162006d706103d1913981526020016040518061040001604052806103c4815260200162004eeb6103c491398152602001604051806103800160405280610344815260200162004ba761034491398152602001604051806104600160405280610432815260200162008cad61043291398152602001604051806103600160405280610335815260200162005f046103359139815260200160405180610440016040528061041f81526020016200821b61041f9139815260200160405180610420016040528061040081526020016200623961040091398152602001604051806104800160405280610443815260200162007dd86104439139815260200160405180610460016040528061044081526020016200432e6104409139815260200160405180610460016040528061043981526020016200476e610439913981526020016040518061048001604052806104428152602001620071416104429139815260200160405180610460016040528061043d815260200162005ac761043d91398152602001604051806104600160405280610438815260200162007583610438913981526020016040518061046001604052806104228152602001620056a5610422913981526020016040518061042001604052806103f68152602001620052af6103f69139815260200160405180610440016040528061041d8152602001620079bb61041d9139815260200160405180610440016040528061041681526020016200663961041691398152506009906014620002c89291906200094d565b506040518061028001604052806040518060400160405280600c81526020017f47796d205363656e6172696f000000000000000000000000000000000000000081525081526020016040518060400160405280600c81526020017f436172205363656e6172696f000000000000000000000000000000000000000081525081526020016040518060400160405280600f81526020017f43617220526573706f6e7365203031000000000000000000000000000000000081525081526020016040518060400160405280600f81526020017f43617220526573706f6e7365203032000000000000000000000000000000000081525081526020016040518060400160405280601881526020017f4d616e73706c61696e696e6720526573706f6e7365203031000000000000000081525081526020016040518060400160405280601881526020017f4865616c74682f57656c6c6e657373205363656e6172696f000000000000000081525081526020016040518060400160405280601881526020017f4d616e73706c61696e696e6720526573706f6e7365203032000000000000000081525081526020016040518060400160405280601581526020017f4d616e73706c61696e696e67205363656e6172696f000000000000000000000081525081526020016040518060400160405280600f81526020017f43617220526573706f6e7365203033000000000000000000000000000000000081525081526020016040518060400160405280600f81526020017f43617220526573706f6e7365203034000000000000000000000000000000000081525081526020016040518060400160405280600f81526020017f47796d20526573706f6e7365203031000000000000000000000000000000000081525081526020016040518060400160405280600f81526020017f47796d20526573706f6e7365203032000000000000000000000000000000000081525081526020016040518060400160405280600f81526020017f47796d20526573706f6e7365203033000000000000000000000000000000000081525081526020016040518060400160405280600f81526020017f47796d20526573706f6e7365203034000000000000000000000000000000000081525081526020016040518060400160405280601b81526020017f4865616c74682f57656c6c6e65737320526573706f6e7365203031000000000081525081526020016040518060400160405280601b81526020017f4865616c74682f57656c6c6e65737320526573706f6e7365203032000000000081525081526020016040518060400160405280601881526020017f4d616e73706c61696e696e6720526573706f6e7365203033000000000000000081525081526020016040518060400160405280601881526020017f4d616e73706c61696e696e6720526573706f6e7365203034000000000000000081525081526020016040518060400160405280601881526020017f4d616e73706c61696e696e6720526573706f6e7365203035000000000000000081525081526020016040518060400160405280601b81526020017f4865616c74682f57656c6c6e65737320526573706f6e73652030330000000000815250815250600a906014620007819291906200094d565b503480156200078f57600080fd5b506040518060400160405280601581526020017f4c6574204d65204d616e73706c61696e205468617400000000000000000000008152506040518060400160405280600481526020017f4c4d4d5400000000000000000000000000000000000000000000000000000000815250816000908051906020019062000814929190620009b4565b5080600190805190602001906200082d929190620009b4565b5050506200087b6040518060400160405280601881526020017f54686973206973206d79204e465420636f6e74726163742e00000000000000008152506200088160201b62000e4f1760201c565b62000bff565b620009218160405160240162000898919062000b13565b6040516020818303038152906040527f41304fac000000000000000000000000000000000000000000000000000000007bffffffffffffffffffffffffffffffffffffffffffffffffffffffff19166020820180517bffffffffffffffffffffffffffffffffffffffffffffffffffffffff83818316178352505050506200092460201b60201c565b50565b60008151905060006a636f6e736f6c652e6c6f679050602083016000808483855afa5050505050565b828054828255906000526020600020908101928215620009a1579160200282015b82811115620009a05782518290805190602001906200098f929190620009b4565b50916020019190600101906200096e565b5b509050620009b0919062000a45565b5090565b828054620009c29062000b89565b90600052602060002090601f016020900481019282620009e6576000855562000a32565b82601f1062000a0157805160ff191683800117855562000a32565b8280016001018555821562000a32579182015b8281111562000a3157825182559160200191906001019062000a14565b5b50905062000a41919062000a6d565b5090565b5b8082111562000a69576000818162000a5f919062000a8c565b5060010162000a46565b5090565b5b8082111562000a8857600081600090555060010162000a6e565b5090565b50805462000a9a9062000b89565b6000825580601f1062000aae575062000acf565b601f01602090049060005260206000209081019062000ace919062000a6d565b5b50565b600062000adf8262000b37565b62000aeb818562000b42565b935062000afd81856020860162000b53565b62000b088162000bee565b840191505092915050565b6000602082019050818103600083015262000b2f818462000ad2565b905092915050565b600081519050919050565b600082825260208201905092915050565b60005b8381101562000b7357808201518184015260208101905062000b56565b8381111562000b83576000848401525b50505050565b6000600282049050600182168062000ba257607f821691505b6020821081141562000bb95762000bb862000bbf565b5b50919050565b7f4e487b7100000000000000000000000000000000000000000000000000000000600052602260045260246000fd5b6000601f19601f8301169050919050565b61371f8062000c0f6000396000f3fe608060405234801561001057600080fd5b50600436106100f55760003560e01c806370a0823111610097578063b88d4fde11610066578063b88d4fde14610270578063c87b56dd1461028c578063e985e9c5146102bc578063f266c77a146102ec576100f5565b806370a08231146101fc57806395d89b411461022c578063a22cb4651461024a578063b036b4bd14610266576100f5565b8063095ea7b3116100d3578063095ea7b31461017857806323b872dd1461019457806342842e0e146101b05780636352211e146101cc576100f5565b806301ffc9a7146100fa57806306fdde031461012a578063081812fc14610148575b600080fd5b610114600480360381019061010f91906122e4565b61030a565b60405161012191906128ed565b60405180910390f35b6101326103ec565b60405161013f9190612908565b60405180910390f35b610162600480360381019061015d9190612336565b61047e565b60405161016f919061285d565b60405180910390f35b610192600480360381019061018d91906122a8565b610503565b005b6101ae60048036038101906101a991906121a2565b61061b565b005b6101ca60048036038101906101c591906121a2565b61067b565b005b6101e660048036038101906101e19190612336565b61069b565b6040516101f3919061285d565b60405180910390f35b6102166004803603810190610211919061213d565b61074d565b6040516102239190612bb8565b60405180910390f35b610234610805565b6040516102419190612908565b60405180910390f35b610264600480360381019061025f919061226c565b610897565b005b61026e6108ad565b005b61028a600480360381019061028591906121f1565b610bbc565b005b6102a660048036038101906102a19190612336565b610c1e565b6040516102b39190612908565b60405180910390f35b6102d660048036038101906102d19190612166565b610d70565b6040516102e391906128ed565b60405180910390f35b6102f4610e04565b6040516103019190612bb8565b60405180910390f35b60007f80ac58cd000000000000000000000000000000000000000000000000000000007bffffffffffffffffffffffffffffffffffffffffffffffffffffffff1916827bffffffffffffffffffffffffffffffffffffffffffffffffffffffff191614806103d557507f5b5e139f000000000000000000000000000000000000000000000000000000007bffffffffffffffffffffffffffffffffffffffffffffffffffffffff1916827bffffffffffffffffffffffffffffffffffffffffffffffffffffffff1916145b806103e557506103e482610ee8565b5b9050919050565b6060600080546103fb90612e4c565b80601f016020809104026020016040519081016040528092919081815260200182805461042790612e4c565b80156104745780601f1061044957610100808354040283529160200191610474565b820191906000526020600020905b81548152906001019060200180831161045757829003601f168201915b5050505050905090565b600061048982610f52565b6104c8576040517f08c379a00000000000000000000000000000000000000000000000000000000081526004016104bf90612b38565b60405180910390fd5b6004600083815260200190815260200160002060009054906101000a900473ffffffffffffffffffffffffffffffffffffffff169050919050565b600061050e8261069b565b90508073ffffffffffffffffffffffffffffffffffffffff168373ffffffffffffffffffffffffffffffffffffffff16141561057f576040517f08c379a000000000000000000000000000000000000000000000000000000000815260040161057690612b78565b60405180910390fd5b8073ffffffffffffffffffffffffffffffffffffffff1661059e610fbe565b73ffffffffffffffffffffffffffffffffffffffff1614806105cd57506105cc816105c7610fbe565b610d70565b5b61060c576040517f08c379a000000000000000000000000000000000000000000000000000000000815260040161060390612a58565b60405180910390fd5b6106168383610fc6565b505050565b61062c610626610fbe565b8261107f565b61066b576040517f08c379a000000000000000000000000000000000000000000000000000000000815260040161066290612b98565b60405180910390fd5b61067683838361115d565b505050565b61069683838360405180602001604052806000815250610bbc565b505050565b6000806002600084815260200190815260200160002060009054906101000a900473ffffffffffffffffffffffffffffffffffffffff169050600073ffffffffffffffffffffffffffffffffffffffff168173ffffffffffffffffffffffffffffffffffffffff161415610744576040517f08c379a000000000000000000000000000000000000000000000000000000000815260040161073b90612a98565b60405180910390fd5b80915050919050565b60008073ffffffffffffffffffffffffffffffffffffffff168273ffffffffffffffffffffffffffffffffffffffff1614156107be576040517f08c379a00000000000000000000000000000000000000000000000000000000081526004016107b590612a78565b60405180910390fd5b600360008373ffffffffffffffffffffffffffffffffffffffff1673ffffffffffffffffffffffffffffffffffffffff168152602001908152602001600020549050919050565b60606001805461081490612e4c565b80601f016020809104026020016040519081016040528092919081815260200182805461084090612e4c565b801561088d5780601f106108625761010080835404028352916020019161088d565b820191906000526020600020905b81548152906001019060200180831161087057829003601f168201915b5050505050905090565b6108a96108a2610fbe565b83836113c4565b5050565b60146108b96007611531565b106108f9576040517f08c379a00000000000000000000000000000000000000000000000000000000081526004016108f090612ad8565b60405180910390fd5b60006109056007611531565b905060016008600082825461091a9190612c81565b9250508190555060006009828154811061095d577f4e487b7100000000000000000000000000000000000000000000000000000000600052603260045260246000fd5b90600052602060002001805461097290612e4c565b80601f016020809104026020016040519081016040528092919081815260200182805461099e90612e4c565b80156109eb5780601f106109c0576101008083540402835291602001916109eb565b820191906000526020600020905b8154815290600101906020018083116109ce57829003601f168201915b505050505090506109fb81610e4f565b6000610a72600a8481548110610a3a577f4e487b7100000000000000000000000000000000000000000000000000000000600052603260045260246000fd5b90600052602060002001610a4d8461153f565b604051602001610a5e9291906127f6565b60405160208183030381529060405261153f565b9050600081604051602001610a87919061283b565b6040516020818303038152906040529050610ad66040518060400160405280601481526020017f0a2d2d2d2d2d2d2d2d2d2d2d2d2d2d2d2d2d2d2d000000000000000000000000815250610e4f565b610afe81604051602001610aea91906127d4565b604051602081830303815290604052610e4f565b610b3c6040518060400160405280601581526020017f2d2d2d2d2d2d2d2d2d2d2d2d2d2d2d2d2d2d2d2d0a0000000000000000000000815250610e4f565b610b4633856116fd565b610b50848261171b565b610b7360405180606001604052806025815260200161368560259139853361178f565b610b7d600761182e565b7fbbedd439cfe8aa51324de58375e6ffccc4ac766d72b9aaeb8a0e4960923ea4163385604051610bae9291906128c4565b60405180910390a150505050565b610bcd610bc7610fbe565b8361107f565b610c0c576040517f08c379a0000000000000000000000000000000000000000000000000000000008152600401610c0390612b98565b60405180910390fd5b610c1884848484611844565b50505050565b6060610c2982610f52565b610c68576040517f08c379a0000000000000000000000000000000000000000000000000000000008152600401610c5f90612b18565b60405180910390fd5b6000600660008481526020019081526020016000208054610c8890612e4c565b80601f0160208091040260200160405190810160405280929190818152602001828054610cb490612e4c565b8015610d015780601f10610cd657610100808354040283529160200191610d01565b820191906000526020600020905b815481529060010190602001808311610ce457829003601f168201915b505050505090506000610d126118a0565b9050600081511415610d28578192505050610d6b565b600082511115610d5d578082604051602001610d459291906127b0565b60405160208183030381529060405292505050610d6b565b610d66846118b7565b925050505b919050565b6000600560008473ffffffffffffffffffffffffffffffffffffffff1673ffffffffffffffffffffffffffffffffffffffff16815260200190815260200160002060008373ffffffffffffffffffffffffffffffffffffffff1673ffffffffffffffffffffffffffffffffffffffff16815260200190815260200160002060009054906101000a900460ff16905092915050565b6000610e476040518060400160405280601e81526020017f257320746f74616c204e4654732068617665206265656e206d696e746564000081525060085461195e565b600854905090565b610ee581604051602401610e639190612908565b6040516020818303038152906040527f41304fac000000000000000000000000000000000000000000000000000000007bffffffffffffffffffffffffffffffffffffffffffffffffffffffff19166020820180517bffffffffffffffffffffffffffffffffffffffffffffffffffffffff83818316178352505050506119fa565b50565b60007f01ffc9a7000000000000000000000000000000000000000000000000000000007bffffffffffffffffffffffffffffffffffffffffffffffffffffffff1916827bffffffffffffffffffffffffffffffffffffffffffffffffffffffff1916149050919050565b60008073ffffffffffffffffffffffffffffffffffffffff166002600084815260200190815260200160002060009054906101000a900473ffffffffffffffffffffffffffffffffffffffff1673ffffffffffffffffffffffffffffffffffffffff1614159050919050565b600033905090565b816004600083815260200190815260200160002060006101000a81548173ffffffffffffffffffffffffffffffffffffffff021916908373ffffffffffffffffffffffffffffffffffffffff160217905550808273ffffffffffffffffffffffffffffffffffffffff166110398361069b565b73ffffffffffffffffffffffffffffffffffffffff167f8c5be1e5ebec7d5bd14f71427d1e84f3dd0314c0f7b2291e5b200ac8c7c3b92560405160405180910390a45050565b600061108a82610f52565b6110c9576040517f08c379a00000000000000000000000000000000000000000000000000000000081526004016110c090612a38565b60405180910390fd5b60006110d48361069b565b90508073ffffffffffffffffffffffffffffffffffffffff168473ffffffffffffffffffffffffffffffffffffffff16148061114357508373ffffffffffffffffffffffffffffffffffffffff1661112b8461047e565b73ffffffffffffffffffffffffffffffffffffffff16145b8061115457506111538185610d70565b5b91505092915050565b8273ffffffffffffffffffffffffffffffffffffffff1661117d8261069b565b73ffffffffffffffffffffffffffffffffffffffff16146111d3576040517f08c379a00000000000000000000000000000000000000000000000000000000081526004016111ca906129b8565b60405180910390fd5b600073ffffffffffffffffffffffffffffffffffffffff168273ffffffffffffffffffffffffffffffffffffffff161415611243576040517f08c379a000000000000000000000000000000000000000000000000000000000815260040161123a906129f8565b60405180910390fd5b61124e838383611a23565b611259600082610fc6565b6001600360008573ffffffffffffffffffffffffffffffffffffffff1673ffffffffffffffffffffffffffffffffffffffff16815260200190815260200160002060008282546112a99190612d62565b925050819055506001600360008473ffffffffffffffffffffffffffffffffffffffff1673ffffffffffffffffffffffffffffffffffffffff16815260200190815260200160002060008282546113009190612c81565b92505081905550816002600083815260200190815260200160002060006101000a81548173ffffffffffffffffffffffffffffffffffffffff021916908373ffffffffffffffffffffffffffffffffffffffff160217905550808273ffffffffffffffffffffffffffffffffffffffff168473ffffffffffffffffffffffffffffffffffffffff167fddf252ad1be2c89b69c2b068fc378daa952ba7f163c4a11628f55a4df523b3ef60405160405180910390a46113bf838383611a28565b505050565b8173ffffffffffffffffffffffffffffffffffffffff168373ffffffffffffffffffffffffffffffffffffffff161415611433576040517f08c379a000000000000000000000000000000000000000000000000000000000815260040161142a90612a18565b60405180910390fd5b80600560008573ffffffffffffffffffffffffffffffffffffffff1673ffffffffffffffffffffffffffffffffffffffff16815260200190815260200160002060008473ffffffffffffffffffffffffffffffffffffffff1673ffffffffffffffffffffffffffffffffffffffff16815260200190815260200160002060006101000a81548160ff0219169083151502179055508173ffffffffffffffffffffffffffffffffffffffff168373ffffffffffffffffffffffffffffffffffffffff167f17307eab39ab6107e8899845ad3d59bd9653f200f220920489ca2b5937696c318360405161152491906128ed565b60405180910390a3505050565b600081600001549050919050565b6060600082519050600081141561156857604051806020016040528060008152509150506116f8565b600060036002836115799190612c81565b6115839190612cd7565b600461158f9190612d08565b905060006020826115a09190612c81565b67ffffffffffffffff8111156115df577f4e487b7100000000000000000000000000000000000000000000000000000000600052604160045260246000fd5b6040519080825280601f01601f1916602001820160405280156116115781602001600182028036833780820191505090505b50905060006040518060600160405280604081526020016136aa604091399050600181016020830160005b868110156116b55760038101905062ffffff818a015116603f8160121c168401518060081b905060ff603f83600c1c1686015116810190508060081b905060ff603f8360061c1686015116810190508060081b905060ff603f831686015116810190508060e01b9050808452600484019350505061163c565b5060038606600181146116cf57600281146116df576116ea565b613d3d60f01b60028303526116ea565b603d60f81b60018303525b508484525050819450505050505b919050565b611717828260405180602001604052806000815250611a2d565b5050565b61172482610f52565b611763576040517f08c379a000000000000000000000000000000000000000000000000000000000815260040161175a90612ab8565b60405180910390fd5b8060066000848152602001908152602001600020908051906020019061178a929190611fc9565b505050565b6118298383836040516024016117a79392919061295a565b6040516020818303038152906040527fe3849f79000000000000000000000000000000000000000000000000000000007bffffffffffffffffffffffffffffffffffffffffffffffffffffffff19166020820180517bffffffffffffffffffffffffffffffffffffffffffffffffffffffff83818316178352505050506119fa565b505050565b6001816000016000828254019250508190555050565b61184f84848461115d565b61185b84848484611a88565b61189a576040517f08c379a000000000000000000000000000000000000000000000000000000000815260040161189190612998565b60405180910390fd5b50505050565b606060405180602001604052806000815250905090565b60606118c282610f52565b611901576040517f08c379a00000000000000000000000000000000000000000000000000000000081526004016118f890612b58565b60405180910390fd5b600061190b6118a0565b9050600081511161192b5760405180602001604052806000815250611956565b8061193584611c1f565b6040516020016119469291906127b0565b6040516020818303038152906040525b915050919050565b6119f6828260405160240161197492919061292a565b6040516020818303038152906040527f9710a9d0000000000000000000000000000000000000000000000000000000007bffffffffffffffffffffffffffffffffffffffffffffffffffffffff19166020820180517bffffffffffffffffffffffffffffffffffffffffffffffffffffffff83818316178352505050506119fa565b5050565b60008151905060006a636f6e736f6c652e6c6f679050602083016000808483855afa5050505050565b505050565b505050565b611a378383611dcc565b611a446000848484611a88565b611a83576040517f08c379a0000000000000000000000000000000000000000000000000000000008152600401611a7a90612998565b60405180910390fd5b505050565b6000611aa98473ffffffffffffffffffffffffffffffffffffffff16611fa6565b15611c12578373ffffffffffffffffffffffffffffffffffffffff1663150b7a02611ad2610fbe565b8786866040518563ffffffff1660e01b8152600401611af49493929190612878565b602060405180830381600087803b158015611b0e57600080fd5b505af1925050508015611b3f57506040513d601f19601f82011682018060405250810190611b3c919061230d565b60015b611bc2573d8060008114611b6f576040519150601f19603f3d011682016040523d82523d6000602084013e611b74565b606091505b50600081511415611bba576040517f08c379a0000000000000000000000000000000000000000000000000000000008152600401611bb190612998565b60405180910390fd5b805181602001fd5b63150b7a0260e01b7bffffffffffffffffffffffffffffffffffffffffffffffffffffffff1916817bffffffffffffffffffffffffffffffffffffffffffffffffffffffff191614915050611c17565b600190505b949350505050565b60606000821415611c67576040518060400160405280600181526020017f30000000000000000000000000000000000000000000000000000000000000008152509050611dc7565b600082905060005b60008214611c99578080611c8290612eaf565b915050600a82611c929190612cd7565b9150611c6f565b60008167ffffffffffffffff811115611cdb577f4e487b7100000000000000000000000000000000000000000000000000000000600052604160045260246000fd5b6040519080825280601f01601f191660200182016040528015611d0d5781602001600182028036833780820191505090505b5090505b60008514611dc057600182611d269190612d62565b9150600a85611d359190612ef8565b6030611d419190612c81565b60f81b818381518110611d7d577f4e487b7100000000000000000000000000000000000000000000000000000000600052603260045260246000fd5b60200101907effffffffffffffffffffffffffffffffffffffffffffffffffffffffffffff1916908160001a905350600a85611db99190612cd7565b9450611d11565b8093505050505b919050565b600073ffffffffffffffffffffffffffffffffffffffff168273ffffffffffffffffffffffffffffffffffffffff161415611e3c576040517f08c379a0000000000000000000000000000000000000000000000000000000008152600401611e3390612af8565b60405180910390fd5b611e4581610f52565b15611e85576040517f08c379a0000000000000000000000000000000000000000000000000000000008152600401611e7c906129d8565b60405180910390fd5b611e9160008383611a23565b6001600360008473ffffffffffffffffffffffffffffffffffffffff1673ffffffffffffffffffffffffffffffffffffffff1681526020019081526020016000206000828254611ee19190612c81565b92505081905550816002600083815260200190815260200160002060006101000a81548173ffffffffffffffffffffffffffffffffffffffff021916908373ffffffffffffffffffffffffffffffffffffffff160217905550808273ffffffffffffffffffffffffffffffffffffffff16600073ffffffffffffffffffffffffffffffffffffffff167fddf252ad1be2c89b69c2b068fc378daa952ba7f163c4a11628f55a4df523b3ef60405160405180910390a4611fa260008383611a28565b5050565b6000808273ffffffffffffffffffffffffffffffffffffffff163b119050919050565b828054611fd590612e4c565b90600052602060002090601f016020900481019282611ff7576000855561203e565b82601f1061201057805160ff191683800117855561203e565b8280016001018555821561203e579182015b8281111561203d578251825591602001919060010190612022565b5b50905061204b919061204f565b5090565b5b80821115612068576000816000905550600101612050565b5090565b600061207f61207a84612bf8565b612bd3565b90508281526020810184848401111561209757600080fd5b6120a2848285612e0a565b509392505050565b6000813590506120b981613628565b92915050565b6000813590506120ce8161363f565b92915050565b6000813590506120e381613656565b92915050565b6000815190506120f881613656565b92915050565b600082601f83011261210f57600080fd5b813561211f84826020860161206c565b91505092915050565b6000813590506121378161366d565b92915050565b60006020828403121561214f57600080fd5b600061215d848285016120aa565b91505092915050565b6000806040838503121561217957600080fd5b6000612187858286016120aa565b9250506020612198858286016120aa565b9150509250929050565b6000806000606084860312156121b757600080fd5b60006121c5868287016120aa565b93505060206121d6868287016120aa565b92505060406121e786828701612128565b9150509250925092565b6000806000806080858703121561220757600080fd5b6000612215878288016120aa565b9450506020612226878288016120aa565b935050604061223787828801612128565b925050606085013567ffffffffffffffff81111561225457600080fd5b612260878288016120fe565b91505092959194509250565b6000806040838503121561227f57600080fd5b600061228d858286016120aa565b925050602061229e858286016120bf565b9150509250929050565b600080604083850312156122bb57600080fd5b60006122c9858286016120aa565b92505060206122da85828601612128565b9150509250929050565b6000602082840312156122f657600080fd5b6000612304848285016120d4565b91505092915050565b60006020828403121561231f57600080fd5b600061232d848285016120e9565b91505092915050565b60006020828403121561234857600080fd5b600061235684828501612128565b91505092915050565b61236881612d96565b82525050565b61237781612da8565b82525050565b600061238882612c3e565b6123928185612c54565b93506123a2818560208601612e19565b6123ab81612fe5565b840191505092915050565b60006123c182612c49565b6123cb8185612c65565b93506123db818560208601612e19565b6123e481612fe5565b840191505092915050565b60006123fa82612c49565b6124048185612c76565b9350612414818560208601612e19565b80840191505092915050565b6000815461242d81612e4c565b6124378186612c76565b94506001821660008114612452576001811461246357612496565b60ff19831686528186019350612496565b61246c85612c29565b60005b8381101561248e5781548189015260018201915060208101905061246f565b838801955050505b50505092915050565b60006124ac602583612c76565b91506124b782612ff6565b602582019050919050565b60006124cf603283612c65565b91506124da82613045565b604082019050919050565b60006124f2602583612c65565b91506124fd82613094565b604082019050919050565b6000612515601c83612c65565b9150612520826130e3565b602082019050919050565b6000612538602483612c65565b91506125438261310c565b604082019050919050565b600061255b601983612c65565b91506125668261315b565b602082019050919050565b600061257e602c83612c65565b915061258982613184565b604082019050919050565b60006125a1603883612c65565b91506125ac826131d3565b604082019050919050565b60006125c4602a83612c65565b91506125cf82613222565b604082019050919050565b60006125e7602983612c65565b91506125f282613271565b604082019050919050565b600061260a602e83612c65565b9150612615826132c0565b604082019050919050565b600061262d600283612c76565b91506126388261330f565b600282019050919050565b6000612650602383612c65565b915061265b82613338565b604082019050919050565b6000612673602083612c65565b915061267e82613387565b602082019050919050565b6000612696603183612c65565b91506126a1826133b0565b604082019050919050565b60006126b9602c83612c65565b91506126c4826133ff565b604082019050919050565b60006126dc602f83612c65565b91506126e78261344e565b604082019050919050565b60006126ff600a83612c76565b915061270a8261349d565b600a82019050919050565b6000612722602183612c65565b915061272d826134c6565b604082019050919050565b6000612745601d83612c76565b915061275082613515565b601d82019050919050565b6000612768603183612c65565b91506127738261353e565b604082019050919050565b600061278b606a83612c76565b91506127968261358d565b606a82019050919050565b6127aa81612e00565b82525050565b60006127bc82856123ef565b91506127c882846123ef565b91508190509392505050565b60006127df8261249f565b91506127eb82846123ef565b915081905092915050565b6000612801826126f2565b915061280d8285612420565b91506128188261277e565b915061282482846123ef565b915061282f82612620565b91508190509392505050565b600061284682612738565b915061285282846123ef565b915081905092915050565b6000602082019050612872600083018461235f565b92915050565b600060808201905061288d600083018761235f565b61289a602083018661235f565b6128a760408301856127a1565b81810360608301526128b9818461237d565b905095945050505050565b60006040820190506128d9600083018561235f565b6128e660208301846127a1565b9392505050565b6000602082019050612902600083018461236e565b92915050565b6000602082019050818103600083015261292281846123b6565b905092915050565b6000604082019050818103600083015261294481856123b6565b905061295360208301846127a1565b9392505050565b6000606082019050818103600083015261297481866123b6565b905061298360208301856127a1565b612990604083018461235f565b949350505050565b600060208201905081810360008301526129b1816124c2565b9050919050565b600060208201905081810360008301526129d1816124e5565b9050919050565b600060208201905081810360008301526129f181612508565b9050919050565b60006020820190508181036000830152612a118161252b565b9050919050565b60006020820190508181036000830152612a318161254e565b9050919050565b60006020820190508181036000830152612a5181612571565b9050919050565b60006020820190508181036000830152612a7181612594565b9050919050565b60006020820190508181036000830152612a91816125b7565b9050919050565b60006020820190508181036000830152612ab1816125da565b9050919050565b60006020820190508181036000830152612ad1816125fd565b9050919050565b60006020820190508181036000830152612af181612643565b9050919050565b60006020820190508181036000830152612b1181612666565b9050919050565b60006020820190508181036000830152612b3181612689565b9050919050565b60006020820190508181036000830152612b51816126ac565b9050919050565b60006020820190508181036000830152612b71816126cf565b9050919050565b60006020820190508181036000830152612b9181612715565b9050919050565b60006020820190508181036000830152612bb18161275b565b9050919050565b6000602082019050612bcd60008301846127a1565b92915050565b6000612bdd612bee565b9050612be98282612e7e565b919050565b6000604051905090565b600067ffffffffffffffff821115612c1357612c12612fb6565b5b612c1c82612fe5565b9050602081019050919050565b60008190508160005260206000209050919050565b600081519050919050565b600081519050919050565b600082825260208201905092915050565b600082825260208201905092915050565b600081905092915050565b6000612c8c82612e00565b9150612c9783612e00565b9250827fffffffffffffffffffffffffffffffffffffffffffffffffffffffffffffffff03821115612ccc57612ccb612f29565b5b828201905092915050565b6000612ce282612e00565b9150612ced83612e00565b925082612cfd57612cfc612f58565b5b828204905092915050565b6000612d1382612e00565b9150612d1e83612e00565b9250817fffffffffffffffffffffffffffffffffffffffffffffffffffffffffffffffff0483118215151615612d5757612d56612f29565b5b828202905092915050565b6000612d6d82612e00565b9150612d7883612e00565b925082821015612d8b57612d8a612f29565b5b828203905092915050565b6000612da182612de0565b9050919050565b60008115159050919050565b60007fffffffff0000000000000000000000000000000000000000000000000000000082169050919050565b600073ffffffffffffffffffffffffffffffffffffffff82169050919050565b6000819050919050565b82818337600083830152505050565b60005b83811015612e37578082015181840152602081019050612e1c565b83811115612e46576000848401525b50505050565b60006002820490506001821680612e6457607f821691505b60208210811415612e7857612e77612f87565b5b50919050565b612e8782612fe5565b810181811067ffffffffffffffff82111715612ea657612ea5612fb6565b5b80604052505050565b6000612eba82612e00565b91507fffffffffffffffffffffffffffffffffffffffffffffffffffffffffffffffff821415612eed57612eec612f29565b5b600182019050919050565b6000612f0382612e00565b9150612f0e83612e00565b925082612f1e57612f1d612f58565b5b828206905092915050565b7f4e487b7100000000000000000000000000000000000000000000000000000000600052601160045260246000fd5b7f4e487b7100000000000000000000000000000000000000000000000000000000600052601260045260246000fd5b7f4e487b7100000000000000000000000000000000000000000000000000000000600052602260045260246000fd5b7f4e487b7100000000000000000000000000000000000000000000000000000000600052604160045260246000fd5b6000601f19601f8301169050919050565b7f68747470733a2f2f6e6674707265766965772e30786465762e636f6465732f3f60008201527f636f64653d000000000000000000000000000000000000000000000000000000602082015250565b7f4552433732313a207472616e7366657220746f206e6f6e20455243373231526560008201527f63656976657220696d706c656d656e7465720000000000000000000000000000602082015250565b7f4552433732313a207472616e736665722066726f6d20696e636f72726563742060008201527f6f776e6572000000000000000000000000000000000000000000000000000000602082015250565b7f4552433732313a20746f6b656e20616c7265616479206d696e74656400000000600082015250565b7f4552433732313a207472616e7366657220746f20746865207a65726f2061646460008201527f7265737300000000000000000000000000000000000000000000000000000000602082015250565b7f4552433732313a20617070726f766520746f2063616c6c657200000000000000600082015250565b7f4552433732313a206f70657261746f7220717565727920666f72206e6f6e657860008201527f697374656e7420746f6b656e0000000000000000000000000000000000000000602082015250565b7f4552433732313a20617070726f76652063616c6c6572206973206e6f74206f7760008201527f6e6572206e6f7220617070726f76656420666f7220616c6c0000000000000000602082015250565b7f4552433732313a2062616c616e636520717565727920666f7220746865207a6560008201527f726f206164647265737300000000000000000000000000000000000000000000602082015250565b7f4552433732313a206f776e657220717565727920666f72206e6f6e657869737460008201527f656e7420746f6b656e0000000000000000000000000000000000000000000000602082015250565b7f45524337323155524953746f726167653a2055524920736574206f66206e6f6e60008201527f6578697374656e7420746f6b656e000000000000000000000000000000000000602082015250565b7f227d000000000000000000000000000000000000000000000000000000000000600082015250565b7f4f6e6c7920323020506c6179696e672043617264732063616e206265206d696e60008201527f7465640000000000000000000000000000000000000000000000000000000000602082015250565b7f4552433732313a206d696e7420746f20746865207a65726f2061646472657373600082015250565b7f45524337323155524953746f726167653a2055524920717565727920666f722060008201527f6e6f6e6578697374656e7420746f6b656e000000000000000000000000000000602082015250565b7f4552433732313a20617070726f76656420717565727920666f72206e6f6e657860008201527f697374656e7420746f6b656e0000000000000000000000000000000000000000602082015250565b7f4552433732314d657461646174613a2055524920717565727920666f72206e6f60008201527f6e6578697374656e7420746f6b656e0000000000000000000000000000000000602082015250565b7f7b226e616d65223a202200000000000000000000000000000000000000000000600082015250565b7f4552433732313a20617070726f76616c20746f2063757272656e74206f776e6560008201527f7200000000000000000000000000000000000000000000000000000000000000602082015250565b7f646174613a6170706c69636174696f6e2f6a736f6e3b6261736536342c000000600082015250565b7f4552433732313a207472616e736665722063616c6c6572206973206e6f74206f60008201527f776e6572206e6f7220617070726f766564000000000000000000000000000000602082015250565b7f222c20226465736372697074696f6e223a2022416e206578636c75736976652060008201527f4c6574204d65204d616e73706c61696e205468617420706c6179696e6720636160208201527f72642e222c2022696d616765223a2022646174613a696d6167652f7376672b7860408201527f6d6c3b6261736536342c00000000000000000000000000000000000000000000606082015250565b61363181612d96565b811461363c57600080fd5b50565b61364881612da8565b811461365357600080fd5b50565b61365f81612db4565b811461366a57600080fd5b50565b61367681612e00565b811461368157600080fd5b5056fe416e204e465420772f20494420257320686173206265656e206d696e74656420746f2025734142434445464748494a4b4c4d4e4f505152535455565758595a6162636465666768696a6b6c6d6e6f707172737475767778797a303132333435363738392b2fa264697066735822122058f58b518e8d7a275ea139e78a25aa72c772481f879143e3c36cc3c0f7394f1664736f6c634300080100333c73766720786d6c6e733d22687474703a2f2f7777772e77332e6f72672f323030302f73766722207072657365727665417370656374526174696f3d22784d696e594d696e206d656574222076696577426f783d223020302033353020343030223e3c7374796c653e2e62617365207b2066696c6c3a206c696d653b20666f6e742d66616d696c793a20636f75726965723b20666f6e742d73697a653a20313470783b207d3c2f7374796c653e3c726563742077696474683d223130302522206865696768743d2231303025222066696c6c3d226675636873696122202f3e3c7265637420783d2232302220793d223230222077696474683d22323322206865696768743d22323322207374726f6b653d22626c61636b222066696c6c3d227472616e73706172656e7422207374726f6b652d77696474683d2233222f3e3c7265637420783d2232372220793d223237222077696474683d22323322206865696768743d22323322207374726f6b653d227768697465222066696c6c3d227472616e73706172656e7422207374726f6b652d77696474683d2233222f3e3c7265637420783d2233342220793d223334222077696474683d22323322206865696768743d22323322207374726f6b653d226c696d65222066696c6c3d227472616e73706172656e7422207374726f6b652d77696474683d2233222f3e3c7465787420783d2235252220793d223230252220636c6173733d22626173652220646f6d696e616e742d626173656c696e653d226d6964646c652220746578742d616e63686f723d227374617274223e5b47796d2062726f20746f20776f6d616e5d2041637475616c6c792c20696620493c2f746578743e3c7465787420783d2235252220793d223235252220636c6173733d22626173652220646f6d696e616e742d626173656c696e653d226d6964646c652220746578742d616e63686f723d227374617274223e646964206e6f742073757065727365742062697320616e642074726973206f6e2031303c2f746578743e3c7465787420783d2235252220793d223330252220636c6173733d22626173652220646f6d696e616e742d626173656c696e653d226d6964646c652220746578742d616e63686f723d227374617274223e646966666572656e7420706965636573206f662065717569706d656e742069743c2f746578743e3c7465787420783d2235252220793d223335252220636c6173733d22626173652220646f6d696e616e742d626173656c696e653d226d6964646c652220746578742d616e63686f723d227374617274223e776f756c64206265206576656e206d6f726520616e6e6f79696e672e2e2e3c2f746578743e3c7465787420783d223835252220793d223935252220636c6173733d22626173652220646f6d696e616e742d626173656c696e653d226d6964646c652220746578742d616e63686f723d227374617274223e4c4d4d543c2f746578743e3c2f7376673e3c73766720786d6c6e733d22687474703a2f2f7777772e77332e6f72672f323030302f73766722207072657365727665417370656374526174696f3d22784d696e594d696e206d656574222076696577426f783d223020302033353020343030223e3c7374796c653e2e62617365207b2066696c6c3a206c696d653b20666f6e742d66616d696c793a20636f75726965723b20666f6e742d73697a653a20313470783b207d3c2f7374796c653e3c726563742077696474683d223130302522206865696768743d2231303025222066696c6c3d226675636873696122202f3e3c7265637420783d2232302220793d223230222077696474683d22323322206865696768743d22323322207374726f6b653d22626c61636b222066696c6c3d227472616e73706172656e7422207374726f6b652d77696474683d2233222f3e3c7265637420783d2232372220793d223237222077696474683d22323322206865696768743d22323322207374726f6b653d227768697465222066696c6c3d227472616e73706172656e7422207374726f6b652d77696474683d2233222f3e3c7265637420783d2233342220793d223334222077696474683d22323322206865696768743d22323322207374726f6b653d226c696d65222066696c6c3d227472616e73706172656e7422207374726f6b652d77696474683d2233222f3e3c7465787420783d2235252220793d223230252220636c6173733d22626173652220646f6d696e616e742d626173656c696e653d226d6964646c652220746578742d616e63686f723d227374617274223e5b47796d2062726f20746f2065766572796f6e655d2041637475616c6c792c3c2f746578743e3c7465787420783d2235252220793d223235252220636c6173733d22626173652220646f6d696e616e742d626173656c696e653d226d6964646c652220746578742d616e63686f723d227374617274223e79656c6c696e67206166746572206561636820726570206b656570733c2f746578743e3c7465787420783d2235252220793d223330252220636c6173733d22626173652220646f6d696e616e742d626173656c696e653d226d6964646c652220746578742d616e63686f723d227374617274223e65766572796f6e6520736166657220626563617573652074686579206b6e6f7720686f773c2f746578743e3c7465787420783d2235252220793d223335252220636c6173733d22626173652220646f6d696e616e742d626173656c696e653d226d6964646c652220746578742d616e63686f723d227374617274223e666172206177617920746f207374616e642066726f6d206d652e2e2e3c2f746578743e3c7465787420783d223835252220793d223935252220636c6173733d22626173652220646f6d696e616e742d626173656c696e653d226d6964646c652220746578742d616e63686f723d227374617274223e4c4d4d543c2f746578743e3c2f7376673e3c73766720786d6c6e733d22687474703a2f2f7777772e77332e6f72672f323030302f73766722207072657365727665417370656374526174696f3d22784d696e594d696e206d656574222076696577426f783d223020302033353020343030223e3c7374796c653e2e62617365207b2066696c6c3a20667563687369613b20666f6e742d66616d696c793a20636f75726965723b20666f6e742d73697a653a20313470783b207d3c2f7374796c653e3c726563742077696474683d223130302522206865696768743d2231303025222066696c6c3d226c696d6522202f3e3c7265637420783d2232302220793d223230222077696474683d22323322206865696768743d22323322207374726f6b653d22626c61636b222066696c6c3d227472616e73706172656e7422207374726f6b652d77696474683d2233222f3e3c7265637420783d2232372220793d223237222077696474683d22323322206865696768743d22323322207374726f6b653d227768697465222066696c6c3d227472616e73706172656e7422207374726f6b652d77696474683d2233222f3e3c7265637420783d2233342220793d223334222077696474683d22323322206865696768743d22323322207374726f6b653d2266756368736961222066696c6c3d227472616e73706172656e7422207374726f6b652d77696474683d2233222f3e3c7465787420783d2235252220793d223230252220636c6173733d22626173652220646f6d696e616e742d626173656c696e653d226d6964646c652220746578742d616e63686f723d227374617274223e4865616c74682c2077656c6c6e6573732c20646965742c206f7220616e793c2f746578743e3c7465787420783d2235252220793d223235252220636c6173733d22626173652220646f6d696e616e742d626173656c696e653d226d6964646c652220746578742d616e63686f723d227374617274223e636f6d626f206f66207468652074687265652e2e2e3c2f746578743e3c7465787420783d223835252220793d223935252220636c6173733d22626173652220646f6d696e616e742d626173656c696e653d226d6964646c652220746578742d616e63686f723d227374617274223e4c4d4d543c2f746578743e3c2f7376673e3c73766720786d6c6e733d22687474703a2f2f7777772e77332e6f72672f323030302f73766722207072657365727665417370656374526174696f3d22784d696e594d696e206d656574222076696577426f783d223020302033353020343030223e3c7374796c653e2e62617365207b2066696c6c3a206c696d653b20666f6e742d66616d696c793a20636f75726965723b20666f6e742d73697a653a20313470783b207d3c2f7374796c653e3c726563742077696474683d223130302522206865696768743d2231303025222066696c6c3d226675636873696122202f3e3c7265637420783d2232302220793d223230222077696474683d22323322206865696768743d22323322207374726f6b653d22626c61636b222066696c6c3d227472616e73706172656e7422207374726f6b652d77696474683d2233222f3e3c7265637420783d2232372220793d223237222077696474683d22323322206865696768743d22323322207374726f6b653d227768697465222066696c6c3d227472616e73706172656e7422207374726f6b652d77696474683d2233222f3e3c7265637420783d2233342220793d223334222077696474683d22323322206865696768743d22323322207374726f6b653d226c696d65222066696c6c3d227472616e73706172656e7422207374726f6b652d77696474683d2233222f3e3c7465787420783d2235252220793d223230252220636c6173733d22626173652220646f6d696e616e742d626173656c696e653d226d6964646c652220746578742d616e63686f723d227374617274223e41637475616c6c792c204920616d206e6f74206d616e73706c61696e696e672e203c2f746578743e3c7465787420783d2235252220793d223235252220636c6173733d22626173652220646f6d696e616e742d626173656c696e653d226d6964646c652220746578742d616e63686f723d227374617274223e204d616e73706c61696e696e67206973207768656e2e2e2e28676f6573206f6e20746f3c2f746578743e3c7465787420783d2235252220793d223330252220636c6173733d22626173652220646f6d696e616e742d626173656c696e653d226d6964646c652220746578742d616e63686f723d227374617274223e6578706c61696e20666f72203130206d696e75746573292e2e2e3c2f746578743e3c7465787420783d223835252220793d223935252220636c6173733d22626173652220646f6d696e616e742d626173656c696e653d226d6964646c652220746578742d616e63686f723d227374617274223e4c4d4d543c2f746578743e3c2f7376673e3c73766720786d6c6e733d22687474703a2f2f7777772e77332e6f72672f323030302f73766722207072657365727665417370656374526174696f3d22784d696e594d696e206d656574222076696577426f783d223020302033353020343030223e3c7374796c653e2e62617365207b2066696c6c3a206c696d653b20666f6e742d66616d696c793a20636f75726965723b20666f6e742d73697a653a20313470783b207d3c2f7374796c653e3c726563742077696474683d223130302522206865696768743d2231303025222066696c6c3d226675636873696122202f3e3c7265637420783d2232302220793d223230222077696474683d22323322206865696768743d22323322207374726f6b653d22626c61636b222066696c6c3d227472616e73706172656e7422207374726f6b652d77696474683d2233222f3e3c7265637420783d2232372220793d223237222077696474683d22323322206865696768743d22323322207374726f6b653d227768697465222066696c6c3d227472616e73706172656e7422207374726f6b652d77696474683d2233222f3e3c7265637420783d2233342220793d223334222077696474683d22323322206865696768743d22323322207374726f6b653d226c696d65222066696c6c3d227472616e73706172656e7422207374726f6b652d77696474683d2233222f3e3c7465787420783d2235252220793d223230252220636c6173733d22626173652220646f6d696e616e742d626173656c696e653d226d6964646c652220746578742d616e63686f723d227374617274223e5b416e79206d616e20657665725d2041637475616c6c792c207768617420796f75206172653c2f746578743e3c7465787420783d2235252220793d223235252220636c6173733d22626173652220646f6d696e616e742d626173656c696e653d226d6964646c652220746578742d616e63686f723d227374617274223e747279696e6720746f207361792069732e2e2e3c2f746578743e3c7465787420783d2235252220793d223330252220636c6173733d22626173652220646f6d696e616e742d626173656c696e653d226d6964646c652220746578742d616e63686f723d227374617274223e3c2f746578743e3c7465787420783d2235252220793d223335252220636c6173733d22626173652220646f6d696e616e742d626173656c696e653d226d6964646c652220746578742d616e63686f723d227374617274223e3c2f746578743e3c7465787420783d223835252220793d223935252220636c6173733d22626173652220646f6d696e616e742d626173656c696e653d226d6964646c652220746578742d616e63686f723d227374617274223e4c4d4d543c2f746578743e3c2f7376673e3c73766720786d6c6e733d22687474703a2f2f7777772e77332e6f72672f323030302f73766722207072657365727665417370656374526174696f3d22784d696e594d696e206d656574222076696577426f783d223020302033353020343030223e3c7374796c653e2e62617365207b2066696c6c3a206c696d653b20666f6e742d66616d696c793a20636f75726965723b20666f6e742d73697a653a20313470783b207d3c2f7374796c653e3c726563742077696474683d223130302522206865696768743d2231303025222066696c6c3d226675636873696122202f3e3c7265637420783d2232302220793d223230222077696474683d22323322206865696768743d22323322207374726f6b653d22626c61636b222066696c6c3d227472616e73706172656e7422207374726f6b652d77696474683d2233222f3e3c7265637420783d2232372220793d223237222077696474683d22323322206865696768743d22323322207374726f6b653d227768697465222066696c6c3d227472616e73706172656e7422207374726f6b652d77696474683d2233222f3e3c7265637420783d2233342220793d223334222077696474683d22323322206865696768743d22323322207374726f6b653d226c696d65222066696c6c3d227472616e73706172656e7422207374726f6b652d77696474683d2233222f3e3c7465787420783d2235252220793d223230252220636c6173733d22626173652220646f6d696e616e742d626173656c696e653d226d6964646c652220746578742d616e63686f723d227374617274223e5b4d616e206174206261725d2041637475616c6c792c206861766520796f753c2f746578743e3c7465787420783d2235252220793d223235252220636c6173733d22626173652220646f6d696e616e742d626173656c696e653d226d6964646c652220746578742d616e63686f723d227374617274223e796f75206865617264206f66204d6574612d6d616e73706c61696e696e673f204e4f3f213c2f746578743e3c7465787420783d2235252220793d223330252220636c6173733d22626173652220646f6d696e616e742d626173656c696e653d226d6964646c652220746578742d616e63686f723d227374617274223e57656c6c2c206c6574206d65206578706c61696e20697420746f20796f752e2e2e3c2f746578743e3c7465787420783d2235252220793d223335252220636c6173733d22626173652220646f6d696e616e742d626173656c696e653d226d6964646c652220746578742d616e63686f723d227374617274223e3c2f746578743e3c7465787420783d223835252220793d223935252220636c6173733d22626173652220646f6d696e616e742d626173656c696e653d226d6964646c652220746578742d616e63686f723d227374617274223e4c4d4d543c2f746578743e3c2f7376673e3c73766720786d6c6e733d22687474703a2f2f7777772e77332e6f72672f323030302f73766722207072657365727665417370656374526174696f3d22784d696e594d696e206d656574222076696577426f783d223020302033353020343030223e3c7374796c653e2e62617365207b2066696c6c3a206c696d653b20666f6e742d66616d696c793a20636f75726965723b20666f6e742d73697a653a20313470783b207d3c2f7374796c653e3c726563742077696474683d223130302522206865696768743d2231303025222066696c6c3d226675636873696122202f3e3c7265637420783d2232302220793d223230222077696474683d22323322206865696768743d22323322207374726f6b653d22626c61636b222066696c6c3d227472616e73706172656e7422207374726f6b652d77696474683d2233222f3e3c7265637420783d2232372220793d223237222077696474683d22323322206865696768743d22323322207374726f6b653d227768697465222066696c6c3d227472616e73706172656e7422207374726f6b652d77696474683d2233222f3e3c7265637420783d2233342220793d223334222077696474683d22323322206865696768743d22323322207374726f6b653d226c696d65222066696c6c3d227472616e73706172656e7422207374726f6b652d77696474683d2233222f3e3c7465787420783d2235252220793d223230252220636c6173733d22626173652220646f6d696e616e742d626173656c696e653d226d6964646c652220746578742d616e63686f723d227374617274223e5b4d616e20746f20776f6d616e20617420686f73706974616c5d3c2f746578743e3c7465787420783d2235252220793d223235252220636c6173733d22626173652220646f6d696e616e742d626173656c696e653d226d6964646c652220746578742d616e63686f723d227374617274223e41637475616c6c792c206368696c646269727468206973206e6f74206173207061696e66756c3c2f746578743e3c7465787420783d2235252220793d223330252220636c6173733d22626173652220646f6d696e616e742d626173656c696e653d226d6964646c652220746578742d616e63686f723d227374617274223e617320736f6d656f6e65206e6f7420617070726563696174696e673c2f746578743e3c7465787420783d2235252220793d223335252220636c6173733d22626173652220646f6d696e616e742d626173656c696e653d226d6964646c652220746578742d616e63686f723d227374617274223e7468652066726565206b6e6f776c6564676520492064726f70206f6e207468656d2e2e2e3c2f746578743e3c7465787420783d223835252220793d223935252220636c6173733d22626173652220646f6d696e616e742d626173656c696e653d226d6964646c652220746578742d616e63686f723d227374617274223e4c4d4d543c2f746578743e3c2f7376673e3c73766720786d6c6e733d22687474703a2f2f7777772e77332e6f72672f323030302f73766722207072657365727665417370656374526174696f3d22784d696e594d696e206d656574222076696577426f783d223020302033353020343030223e3c7374796c653e2e62617365207b2066696c6c3a20667563687369613b20666f6e742d66616d696c793a20636f75726965723b20666f6e742d73697a653a20313470783b207d3c2f7374796c653e3c726563742077696474683d223130302522206865696768743d2231303025222066696c6c3d226c696d6522202f3e3c7265637420783d2232302220793d223230222077696474683d22323322206865696768743d22323322207374726f6b653d22626c61636b222066696c6c3d227472616e73706172656e7422207374726f6b652d77696474683d2233222f3e3c7265637420783d2232372220793d223237222077696474683d22323322206865696768743d22323322207374726f6b653d227768697465222066696c6c3d227472616e73706172656e7422207374726f6b652d77696474683d2233222f3e3c7265637420783d2233342220793d223334222077696474683d22323322206865696768743d22323322207374726f6b653d2266756368736961222066696c6c3d227472616e73706172656e7422207374726f6b652d77696474683d2233222f3e3c7465787420783d2235252220793d223230252220636c6173733d22626173652220646f6d696e616e742d626173656c696e653d226d6964646c652220746578742d616e63686f723d227374617274223e4d616e73706c61696e696e672077686174206d616e73706c61696e696e672069732e2e2e3c2f746578743e3c7465787420783d2235252220793d223235252220636c6173733d22626173652220646f6d696e616e742d626173656c696e653d226d6964646c652220746578742d616e63686f723d227374617274223e3c2f746578743e3c7465787420783d223835252220793d223935252220636c6173733d22626173652220646f6d696e616e742d626173656c696e653d226d6964646c652220746578742d616e63686f723d227374617274223e4c4d4d543c2f746578743e3c2f7376673e3c73766720786d6c6e733d22687474703a2f2f7777772e77332e6f72672f323030302f73766722207072657365727665417370656374526174696f3d22784d696e594d696e206d656574222076696577426f783d223020302033353020343030223e3c7374796c653e2e62617365207b2066696c6c3a206c696d653b20666f6e742d66616d696c793a20636f75726965723b20666f6e742d73697a653a20313470783b207d3c2f7374796c653e3c726563742077696474683d223130302522206865696768743d2231303025222066696c6c3d226675636873696122202f3e3c7265637420783d2232302220793d223230222077696474683d22323322206865696768743d22323322207374726f6b653d22626c61636b222066696c6c3d227472616e73706172656e7422207374726f6b652d77696474683d2233222f3e3c7265637420783d2232372220793d223237222077696474683d22323322206865696768743d22323322207374726f6b653d227768697465222066696c6c3d227472616e73706172656e7422207374726f6b652d77696474683d2233222f3e3c7265637420783d2233342220793d223334222077696474683d22323322206865696768743d22323322207374726f6b653d226c696d65222066696c6c3d227472616e73706172656e7422207374726f6b652d77696474683d2233222f3e3c7465787420783d2235252220793d223230252220636c6173733d22626173652220646f6d696e616e742d626173656c696e653d226d6964646c652220746578742d616e63686f723d227374617274223e5b50617373656e67657220746f206472697665725d2041637475616c6c792c207468653c2f746578743e3c7465787420783d2235252220793d223235252220636c6173733d22626173652220646f6d696e616e742d626173656c696e653d226d6964646c652220746578742d616e63686f723d227374617274223e677265656e206c69676874206d65616e7320796f752063616e20676f2e2e2e3c2f746578743e3c7465787420783d2235252220793d223330252220636c6173733d22626173652220646f6d696e616e742d626173656c696e653d226d6964646c652220746578742d616e63686f723d227374617274223e3c2f746578743e3c7465787420783d2235252220793d223335252220636c6173733d22626173652220646f6d696e616e742d626173656c696e653d226d6964646c652220746578742d616e63686f723d227374617274223e3c2f746578743e3c7465787420783d223835252220793d223935252220636c6173733d22626173652220646f6d696e616e742d626173656c696e653d226d6964646c652220746578742d616e63686f723d227374617274223e4c4d4d543c2f746578743e3c2f7376673e3c73766720786d6c6e733d22687474703a2f2f7777772e77332e6f72672f323030302f73766722207072657365727665417370656374526174696f3d22784d696e594d696e206d656574222076696577426f783d223020302033353020343030223e3c7374796c653e2e62617365207b2066696c6c3a206c696d653b20666f6e742d66616d696c793a20636f75726965723b20666f6e742d73697a653a20313470783b207d3c2f7374796c653e3c726563742077696474683d223130302522206865696768743d2231303025222066696c6c3d226675636873696122202f3e3c7265637420783d2232302220793d223230222077696474683d22323322206865696768743d22323322207374726f6b653d22626c61636b222066696c6c3d227472616e73706172656e7422207374726f6b652d77696474683d2233222f3e3c7265637420783d2232372220793d223237222077696474683d22323322206865696768743d22323322207374726f6b653d227768697465222066696c6c3d227472616e73706172656e7422207374726f6b652d77696474683d2233222f3e3c7265637420783d2233342220793d223334222077696474683d22323322206865696768743d22323322207374726f6b653d226c696d65222066696c6c3d227472616e73706172656e7422207374726f6b652d77696474683d2233222f3e3c7465787420783d2235252220793d223230252220636c6173733d22626173652220646f6d696e616e742d626173656c696e653d226d6964646c652220746578742d616e63686f723d227374617274223e5b4d616e206465626174696e67206769726c667269656e645d2041637475616c6c792c3c2f746578743e3c7465787420783d2235252220793d223235252220636c6173733d22626173652220646f6d696e616e742d626173656c696e653d226d6964646c652220746578742d616e63686f723d227374617274223e504d53206f63637572732074776f207765656b73206265666f72653c2f746578743e3c7465787420783d2235252220793d223330252220636c6173733d22626173652220646f6d696e616e742d626173656c696e653d226d6964646c652220746578742d616e63686f723d227374617274223e6120776f6d616e20676574732068657220706572696f642e2e2e3c2f746578743e3c7465787420783d2235252220793d223335252220636c6173733d22626173652220646f6d696e616e742d626173656c696e653d226d6964646c652220746578742d616e63686f723d227374617274223e3c2f746578743e3c7465787420783d223835252220793d223935252220636c6173733d22626173652220646f6d696e616e742d626173656c696e653d226d6964646c652220746578742d616e63686f723d227374617274223e4c4d4d543c2f746578743e3c2f7376673e3c73766720786d6c6e733d22687474703a2f2f7777772e77332e6f72672f323030302f73766722207072657365727665417370656374526174696f3d22784d696e594d696e206d656574222076696577426f783d223020302033353020343030223e3c7374796c653e2e62617365207b2066696c6c3a20667563687369613b20666f6e742d66616d696c793a20636f75726965723b20666f6e742d73697a653a20313470783b207d3c2f7374796c653e3c726563742077696474683d223130302522206865696768743d2231303025222066696c6c3d226c696d6522202f3e3c7265637420783d2232302220793d223230222077696474683d22323322206865696768743d22323322207374726f6b653d22626c61636b222066696c6c3d227472616e73706172656e7422207374726f6b652d77696474683d2233222f3e3c7265637420783d2232372220793d223237222077696474683d22323322206865696768743d22323322207374726f6b653d227768697465222066696c6c3d227472616e73706172656e7422207374726f6b652d77696474683d2233222f3e3c7265637420783d2233342220793d223334222077696474683d22323322206865696768743d22323322207374726f6b653d2266756368736961222066696c6c3d227472616e73706172656e7422207374726f6b652d77696474683d2233222f3e3c7465787420783d2235252220793d223230252220636c6173733d22626173652220646f6d696e616e742d626173656c696e653d226d6964646c652220746578742d616e63686f723d227374617274223e64726976696e672061206361722e2e2e3c2f746578743e3c7465787420783d2235252220793d223235252220636c6173733d22626173652220646f6d696e616e742d626173656c696e653d226d6964646c652220746578742d616e63686f723d227374617274223e3c2f746578743e3c7465787420783d223835252220793d223935252220636c6173733d22626173652220646f6d696e616e742d626173656c696e653d226d6964646c652220746578742d616e63686f723d227374617274223e4c4d4d543c2f746578743e3c2f7376673e3c73766720786d6c6e733d22687474703a2f2f7777772e77332e6f72672f323030302f73766722207072657365727665417370656374526174696f3d22784d696e594d696e206d656574222076696577426f783d223020302033353020343030223e3c7374796c653e2e62617365207b2066696c6c3a206c696d653b20666f6e742d66616d696c793a20636f75726965723b20666f6e742d73697a653a20313470783b207d3c2f7374796c653e3c726563742077696474683d223130302522206865696768743d2231303025222066696c6c3d226675636873696122202f3e3c7265637420783d2232302220793d223230222077696474683d22323322206865696768743d22323322207374726f6b653d22626c61636b222066696c6c3d227472616e73706172656e7422207374726f6b652d77696474683d2233222f3e3c7265637420783d2232372220793d223237222077696474683d22323322206865696768743d22323322207374726f6b653d227768697465222066696c6c3d227472616e73706172656e7422207374726f6b652d77696474683d2233222f3e3c7265637420783d2233342220793d223334222077696474683d22323322206865696768743d22323322207374726f6b653d226c696d65222066696c6c3d227472616e73706172656e7422207374726f6b652d77696474683d2233222f3e3c7465787420783d2235252220793d223230252220636c6173733d22626173652220646f6d696e616e742d626173656c696e653d226d6964646c652220746578742d616e63686f723d227374617274223e5b4361722073616c65736d616e20746f20776f6d616e5d2041637475616c6c792c3c2f746578743e3c7465787420783d2235252220793d223235252220636c6173733d22626173652220646f6d696e616e742d626173656c696e653d226d6964646c652220746578742d616e63686f723d227374617274223e20796f752061726520676f696e6720746f2077616e7420746f206c6f6f6b206174206f75723c2f746578743e3c7465787420783d2235252220793d223330252220636c6173733d22626173652220646f6d696e616e742d626173656c696e653d226d6964646c652220746578742d616e63686f723d227374617274223e6c696e65206f66206175746f6d61746963207472616e736d697373696f6e20636172732e2e3c2f746578743e3c7465787420783d223835252220793d223935252220636c6173733d22626173652220646f6d696e616e742d626173656c696e653d226d6964646c652220746578742d616e63686f723d227374617274223e4c4d4d543c2f746578743e3c2f7376673e3c73766720786d6c6e733d22687474703a2f2f7777772e77332e6f72672f323030302f73766722207072657365727665417370656374526174696f3d22784d696e594d696e206d656574222076696577426f783d223020302033353020343030223e3c7374796c653e2e62617365207b2066696c6c3a206c696d653b20666f6e742d66616d696c793a20636f75726965723b20666f6e742d73697a653a20313470783b207d3c2f7374796c653e3c726563742077696474683d223130302522206865696768743d2231303025222066696c6c3d226675636873696122202f3e3c7265637420783d2232302220793d223230222077696474683d22323322206865696768743d22323322207374726f6b653d22626c61636b222066696c6c3d227472616e73706172656e7422207374726f6b652d77696474683d2233222f3e3c7265637420783d2232372220793d223237222077696474683d22323322206865696768743d22323322207374726f6b653d227768697465222066696c6c3d227472616e73706172656e7422207374726f6b652d77696474683d2233222f3e3c7265637420783d2233342220793d223334222077696474683d22323322206865696768743d22323322207374726f6b653d226c696d65222066696c6c3d227472616e73706172656e7422207374726f6b652d77696474683d2233222f3e3c7465787420783d2235252220793d223230252220636c6173733d22626173652220646f6d696e616e742d626173656c696e653d226d6964646c652220746578742d616e63686f723d227374617274223e5b47796d2062726f20746f2062797374616e6465725d2041637475616c6c792c3c2f746578743e3c7465787420783d2235252220793d223235252220636c6173733d22626173652220646f6d696e616e742d626173656c696e653d226d6964646c652220746578742d616e63686f723d227374617274223e736565696e6720796f7572207265666c656374696f6e20696e20746865206d6972726f723c2f746578743e3c7465787420783d2235252220793d223330252220636c6173733d22626173652220646f6d696e616e742d626173656c696e653d226d6964646c652220746578742d616e63686f723d227374617274223e6d616b657320796f7520313625207374726f6e67657220736f206d616b653c2f746578743e3c7465787420783d2235252220793d223335252220636c6173733d22626173652220646f6d696e616e742d626173656c696e653d226d6964646c652220746578742d616e63686f723d227374617274223e737572652070656f706c652073746179206f7574206f6620746865207761792e2e2e3c2f746578743e3c7465787420783d223835252220793d223935252220636c6173733d22626173652220646f6d696e616e742d626173656c696e653d226d6964646c652220746578742d616e63686f723d227374617274223e4c4d4d543c2f746578743e3c2f7376673e3c73766720786d6c6e733d22687474703a2f2f7777772e77332e6f72672f323030302f73766722207072657365727665417370656374526174696f3d22784d696e594d696e206d656574222076696577426f783d223020302033353020343030223e3c7374796c653e2e62617365207b2066696c6c3a206c696d653b20666f6e742d66616d696c793a20636f75726965723b20666f6e742d73697a653a20313470783b207d3c2f7374796c653e3c726563742077696474683d223130302522206865696768743d2231303025222066696c6c3d226675636873696122202f3e3c7265637420783d2232302220793d223230222077696474683d22323322206865696768743d22323322207374726f6b653d22626c61636b222066696c6c3d227472616e73706172656e7422207374726f6b652d77696474683d2233222f3e3c7265637420783d2232372220793d223237222077696474683d22323322206865696768743d22323322207374726f6b653d227768697465222066696c6c3d227472616e73706172656e7422207374726f6b652d77696474683d2233222f3e3c7265637420783d2233342220793d223334222077696474683d22323322206865696768743d22323322207374726f6b653d226c696d65222066696c6c3d227472616e73706172656e7422207374726f6b652d77696474683d2233222f3e3c7465787420783d2235252220793d223230252220636c6173733d22626173652220646f6d696e616e742d626173656c696e653d226d6964646c652220746578742d616e63686f723d227374617274223e5b4d616e2061742064696e6e6572207461626c655d2041637475616c6c792c3c2f746578743e3c7465787420783d2235252220793d223235252220636c6173733d22626173652220646f6d696e616e742d626173656c696e653d226d6964646c652220746578742d616e63686f723d227374617274223e7065722074686520706f64636173742049206c697374656e20746f2c20796f753c2f746578743e3c7465787420783d2235252220793d223330252220636c6173733d22626173652220646f6d696e616e742d626173656c696e653d226d6964646c652220746578742d616e63686f723d227374617274223e73686f756c64206561742072617720726564206d6561742031362074696d65733c2f746578743e3c7465787420783d2235252220793d223335252220636c6173733d22626173652220646f6d696e616e742d626173656c696e653d226d6964646c652220746578742d616e63686f723d227374617274223e6461696c7920666f72206f7074696d616c206865616c74682e2e2e3c2f746578743e3c7465787420783d223835252220793d223935252220636c6173733d22626173652220646f6d696e616e742d626173656c696e653d226d6964646c652220746578742d616e63686f723d227374617274223e4c4d4d543c2f746578743e3c2f7376673e3c73766720786d6c6e733d22687474703a2f2f7777772e77332e6f72672f323030302f73766722207072657365727665417370656374526174696f3d22784d696e594d696e206d656574222076696577426f783d223020302033353020343030223e3c7374796c653e2e62617365207b2066696c6c3a206c696d653b20666f6e742d66616d696c793a20636f75726965723b20666f6e742d73697a653a20313470783b207d3c2f7374796c653e3c726563742077696474683d223130302522206865696768743d2231303025222066696c6c3d226675636873696122202f3e3c7265637420783d2232302220793d223230222077696474683d22323322206865696768743d22323322207374726f6b653d22626c61636b222066696c6c3d227472616e73706172656e7422207374726f6b652d77696474683d2233222f3e3c7265637420783d2232372220793d223237222077696474683d22323322206865696768743d22323322207374726f6b653d227768697465222066696c6c3d227472616e73706172656e7422207374726f6b652d77696474683d2233222f3e3c7265637420783d2233342220793d223334222077696474683d22323322206865696768743d22323322207374726f6b653d226c696d65222066696c6c3d227472616e73706172656e7422207374726f6b652d77696474683d2233222f3e3c7465787420783d2235252220793d223230252220636c6173733d22626173652220646f6d696e616e742d626173656c696e653d226d6964646c652220746578742d616e63686f723d227374617274223e5b47757920696e20626f6f6b73746f72655d2041637475616c6c792c206d6f73743c2f746578743e3c7465787420783d2235252220793d223235252220636c6173733d22626173652220646f6d696e616e742d626173656c696e653d226d6964646c652220746578742d616e63686f723d227374617274223e6c616469657320646f206e6f7420756e6465727374616e6420776861743c2f746578743e3c7465787420783d2235252220793d223330252220636c6173733d22626173652220646f6d696e616e742d626173656c696e653d226d6964646c652220746578742d616e63686f723d227374617274223e6d616e73706c61696e696e6720697320736f2068656172206d65206f75742e2e2e3c2f746578743e3c7465787420783d2235252220793d223335252220636c6173733d22626173652220646f6d696e616e742d626173656c696e653d226d6964646c652220746578742d616e63686f723d227374617274223e3c2f746578743e3c7465787420783d223835252220793d223935252220636c6173733d22626173652220646f6d696e616e742d626173656c696e653d226d6964646c652220746578742d616e63686f723d227374617274223e4c4d4d543c2f746578743e3c2f7376673e3c73766720786d6c6e733d22687474703a2f2f7777772e77332e6f72672f323030302f73766722207072657365727665417370656374526174696f3d22784d696e594d696e206d656574222076696577426f783d223020302033353020343030223e3c7374796c653e2e62617365207b2066696c6c3a206c696d653b20666f6e742d66616d696c793a20636f75726965723b20666f6e742d73697a653a20313470783b207d3c2f7374796c653e3c726563742077696474683d223130302522206865696768743d2231303025222066696c6c3d226675636873696122202f3e3c7265637420783d2232302220793d223230222077696474683d22323322206865696768743d22323322207374726f6b653d22626c61636b222066696c6c3d227472616e73706172656e7422207374726f6b652d77696474683d2233222f3e3c7265637420783d2232372220793d223237222077696474683d22323322206865696768743d22323322207374726f6b653d227768697465222066696c6c3d227472616e73706172656e7422207374726f6b652d77696474683d2233222f3e3c7265637420783d2233342220793d223334222077696474683d22323322206865696768743d22323322207374726f6b653d226c696d65222066696c6c3d227472616e73706172656e7422207374726f6b652d77696474683d2233222f3e3c7465787420783d2235252220793d223230252220636c6173733d22626173652220646f6d696e616e742d626173656c696e653d226d6964646c652220746578742d616e63686f723d227374617274223e5b47796d2062726f20746f20776f6d616e20617420776174657220666f756e7461696e5d3c2f746578743e3c7465787420783d2235252220793d223235252220636c6173733d22626173652220646f6d696e616e742d626173656c696e653d226d6964646c652220746578742d616e63686f723d227374617274223e41637475616c6c792c207768656e20796f7520686f6c6420796f75722077617465723c2f746578743e3c7465787420783d2235252220793d223330252220636c6173733d22626173652220646f6d696e616e742d626173656c696e653d226d6964646c652220746578742d616e63686f723d227374617274223e626f74746c652061742034372e3520646567726565732069742077696c6c20776f726b3c2f746578743e3c7465787420783d2235252220793d223335252220636c6173733d22626173652220646f6d696e616e742d626173656c696e653d226d6964646c652220746578742d616e63686f723d227374617274223e796f7572206c6174732c206269732c20747269732c20616e642e2e2e3c2f746578743e3c7465787420783d223835252220793d223935252220636c6173733d22626173652220646f6d696e616e742d626173656c696e653d226d6964646c652220746578742d616e63686f723d227374617274223e4c4d4d543c2f746578743e3c2f7376673e3c73766720786d6c6e733d22687474703a2f2f7777772e77332e6f72672f323030302f73766722207072657365727665417370656374526174696f3d22784d696e594d696e206d656574222076696577426f783d223020302033353020343030223e3c7374796c653e2e62617365207b2066696c6c3a206c696d653b20666f6e742d66616d696c793a20636f75726965723b20666f6e742d73697a653a20313470783b207d3c2f7374796c653e3c726563742077696474683d223130302522206865696768743d2231303025222066696c6c3d226675636873696122202f3e3c7265637420783d2232302220793d223230222077696474683d22323322206865696768743d22323322207374726f6b653d22626c61636b222066696c6c3d227472616e73706172656e7422207374726f6b652d77696474683d2233222f3e3c7265637420783d2232372220793d223237222077696474683d22323322206865696768743d22323322207374726f6b653d227768697465222066696c6c3d227472616e73706172656e7422207374726f6b652d77696474683d2233222f3e3c7265637420783d2233342220793d223334222077696474683d22323322206865696768743d22323322207374726f6b653d226c696d65222066696c6c3d227472616e73706172656e7422207374726f6b652d77696474683d2233222f3e3c7465787420783d2235252220793d223230252220636c6173733d22626173652220646f6d696e616e742d626173656c696e653d226d6964646c652220746578742d616e63686f723d227374617274223e5b47617320617474656e64616e7420746f20776f6d616e5d2041637475616c6c792c3c2f746578743e3c7465787420783d2235252220793d223235252220636c6173733d22626173652220646f6d696e616e742d626173656c696e653d226d6964646c652220746578742d616e63686f723d227374617274223e696620796f7520707574206d6f72652067617320696e20796f7572206361723c2f746578743e3c7465787420783d2235252220793d223330252220636c6173733d22626173652220646f6d696e616e742d626173656c696e653d226d6964646c652220746578742d616e63686f723d227374617274223e69742077696c6c2062652061626c6520746f20676f20666172746865722e2e2e3c2f746578743e3c7465787420783d2235252220793d223335252220636c6173733d22626173652220646f6d696e616e742d626173656c696e653d226d6964646c652220746578742d616e63686f723d227374617274223e3c2f746578743e3c7465787420783d223835252220793d223935252220636c6173733d22626173652220646f6d696e616e742d626173656c696e653d226d6964646c652220746578742d616e63686f723d227374617274223e4c4d4d543c2f746578743e3c2f7376673e3c73766720786d6c6e733d22687474703a2f2f7777772e77332e6f72672f323030302f73766722207072657365727665417370656374526174696f3d22784d696e594d696e206d656574222076696577426f783d223020302033353020343030223e3c7374796c653e2e62617365207b2066696c6c3a206c696d653b20666f6e742d66616d696c793a20636f75726965723b20666f6e742d73697a653a20313470783b207d3c2f7374796c653e3c726563742077696474683d223130302522206865696768743d2231303025222066696c6c3d226675636873696122202f3e3c7265637420783d2232302220793d223230222077696474683d22323322206865696768743d22323322207374726f6b653d22626c61636b222066696c6c3d227472616e73706172656e7422207374726f6b652d77696474683d2233222f3e3c7265637420783d2232372220793d223237222077696474683d22323322206865696768743d22323322207374726f6b653d227768697465222066696c6c3d227472616e73706172656e7422207374726f6b652d77696474683d2233222f3e3c7265637420783d2233342220793d223334222077696474683d22323322206865696768743d22323322207374726f6b653d226c696d65222066696c6c3d227472616e73706172656e7422207374726f6b652d77696474683d2233222f3e3c7465787420783d2235252220793d223230252220636c6173733d22626173652220646f6d696e616e742d626173656c696e653d226d6964646c652220746578742d616e63686f723d227374617274223e5b4d616e207361797320746f20776966655d2041637475616c6c792c206f75723c2f746578743e3c7465787420783d2235252220793d223235252220636c6173733d22626173652220646f6d696e616e742d626173656c696e653d226d6964646c652220746578742d616e63686f723d227374617274223e686f757365206973207570206f6e207468652072696768742e2e2e3c2f746578743e3c7465787420783d223835252220793d223935252220636c6173733d22626173652220646f6d696e616e742d626173656c696e653d226d6964646c652220746578742d616e63686f723d227374617274223e4c4d4d543c2f746578743e3c2f7376673e3c73766720786d6c6e733d22687474703a2f2f7777772e77332e6f72672f323030302f73766722207072657365727665417370656374526174696f3d22784d696e594d696e206d656574222076696577426f783d223020302033353020343030223e3c7374796c653e2e62617365207b2066696c6c3a20667563687369613b20666f6e742d66616d696c793a20636f75726965723b20666f6e742d73697a653a20313470783b207d3c2f7374796c653e3c726563742077696474683d223130302522206865696768743d2231303025222066696c6c3d226c696d6522202f3e3c7265637420783d2232302220793d223230222077696474683d22323322206865696768743d22323322207374726f6b653d22626c61636b222066696c6c3d227472616e73706172656e7422207374726f6b652d77696474683d2233222f3e3c7265637420783d2232372220793d223237222077696474683d22323322206865696768743d22323322207374726f6b653d227768697465222066696c6c3d227472616e73706172656e7422207374726f6b652d77696474683d2233222f3e3c7265637420783d2233342220793d223334222077696474683d22323322206865696768743d22323322207374726f6b653d2266756368736961222066696c6c3d227472616e73706172656e7422207374726f6b652d77696474683d2233222f3e3c7465787420783d2235252220793d223230252220636c6173733d22626173652220646f6d696e616e742d626173656c696e653d226d6964646c652220746578742d616e63686f723d227374617274223e776f726b696e67206f757420696e207468652067796d2e2e2e3c2f746578743e3c7465787420783d2235252220793d223235252220636c6173733d22626173652220646f6d696e616e742d626173656c696e653d226d6964646c652220746578742d616e63686f723d227374617274223e3c2f746578743e3c7465787420783d223835252220793d223935252220636c6173733d22626173652220646f6d696e616e742d626173656c696e653d226d6964646c652220746578742d616e63686f723d227374617274223e4c4d4d543c2f746578743e3c2f7376673e3c73766720786d6c6e733d22687474703a2f2f7777772e77332e6f72672f323030302f73766722207072657365727665417370656374526174696f3d22784d696e594d696e206d656574222076696577426f783d223020302033353020343030223e3c7374796c653e2e62617365207b2066696c6c3a206c696d653b20666f6e742d66616d696c793a20636f75726965723b20666f6e742d73697a653a20313470783b207d3c2f7374796c653e3c726563742077696474683d223130302522206865696768743d2231303025222066696c6c3d226675636873696122202f3e3c7265637420783d2232302220793d223230222077696474683d22323322206865696768743d22323322207374726f6b653d22626c61636b222066696c6c3d227472616e73706172656e7422207374726f6b652d77696474683d2233222f3e3c7265637420783d2232372220793d223237222077696474683d22323322206865696768743d22323322207374726f6b653d227768697465222066696c6c3d227472616e73706172656e7422207374726f6b652d77696474683d2233222f3e3c7265637420783d2233342220793d223334222077696474683d22323322206865696768743d22323322207374726f6b653d226c696d65222066696c6c3d227472616e73706172656e7422207374726f6b652d77696474683d2233222f3e3c7465787420783d2235252220793d223230252220636c6173733d22626173652220646f6d696e616e742d626173656c696e653d226d6964646c652220746578742d616e63686f723d227374617274223e5b4d616e20746f20776f6d616e5d2041637475616c6c792c204920616d206e6f743c2f746578743e3c7465787420783d2235252220793d223235252220636c6173733d22626173652220646f6d696e616e742d626173656c696e653d226d6964646c652220746578742d616e63686f723d227374617274223e6d616e73706c61696e696e6720746f20796f752e204920616d206a7573743c2f746578743e3c7465787420783d2235252220793d223330252220636c6173733d22626173652220646f6d696e616e742d626173656c696e653d226d6964646c652220746578742d616e63686f723d227374617274223e6d616b696e67207375726520796f7520756e6465727374616e643c2f746578743e3c7465787420783d2235252220793d223335252220636c6173733d22626173652220646f6d696e616e742d626173656c696e653d226d6964646c652220746578742d616e63686f723d227374617274223e7468697320636f6d706c696361746564207375626a6563742e2e2e3c2f746578743e3c7465787420783d223835252220793d223935252220636c6173733d22626173652220646f6d696e616e742d626173656c696e653d226d6964646c652220746578742d616e63686f723d227374617274223e4c4d4d543c2f746578743e3c2f7376673e",
  "linkReferences": {},
  "deployedLinkReferences": {}
}